{
  "_format": "hh-sol-artifact-1",
  "contractName": "Counter",
  "sourceName": "contracts/Counter.sol",
  "abi": [
    {
      "inputs": [],
      "name": "count",
      "outputs": [
        {
          "internalType": "uint256",
          "name": "",
          "type": "uint256"
        }
      ],
      "stateMutability": "view",
      "type": "function"
    },
    {
      "inputs": [],
      "name": "dec",
      "outputs": [],
      "stateMutability": "nonpayable",
      "type": "function"
    },
    {
      "inputs": [],
      "name": "get",
      "outputs": [
        {
          "internalType": "uint256",
          "name": "",
          "type": "uint256"
        }
      ],
      "stateMutability": "view",
      "type": "function"
    },
    {
      "inputs": [],
      "name": "inc",
      "outputs": [],
      "stateMutability": "nonpayable",
      "type": "function"
    }
  ],
  "bytecode": "0x60806040526000805534801561001457600080fd5b50610209806100246000396000f3fe608060405234801561001057600080fd5b506004361061004c5760003560e01c806306661abd14610051578063371303c01461006f5780636d4ce63c14610079578063b3bcfa8214610097575b600080fd5b6100596100a1565b60405161006691906100ff565b60405180910390f35b6100776100a7565b005b6100816100c2565b60405161008e91906100ff565b60405180910390f35b61009f6100cb565b005b60005481565b60016000808282546100b99190610149565b92505081905550565b60008054905090565b60016000808282546100dd919061019f565b92505081905550565b6000819050919050565b6100f9816100e6565b82525050565b600060208201905061011460008301846100f0565b92915050565b7f4e487b7100000000000000000000000000000000000000000000000000000000600052601160045260246000fd5b6000610154826100e6565b915061015f836100e6565b9250827fffffffffffffffffffffffffffffffffffffffffffffffffffffffffffffffff038211156101945761019361011a565b5b828201905092915050565b60006101aa826100e6565b91506101b5836100e6565b9250828210156101c8576101c761011a565b5b82820390509291505056fea264697066735822122021d65d0db327da07f423fe830dc80fe5a89a7f4d62a6bcd54c8471689bf100c164736f6c634300080b0033",
  "linkReferences": {},
  "deployedLinkReferences": {}
}